:020000040800F2
:10000000F0A00020450100081F1200081F11000881
:100010001D120008DD0100087D210008000000001D
:10002000000000000000000000000000E91E0008C1
:10003000F901000800000000311E0008EB1E000856
:100040005F0100085F0100085F0100085F01000810
:100050005F0100085F0100085F0100085F01000800
:100060005F0100085F0100085F0100085F010008F0
:100070005F0100085F0100085F0100085F010008E0
:100080005F0100085F0100085F0100085F010008D0
:100090005F0100085F0100085F0100085F010008C0
:1000A0005F0100085F0100085F0100085F010008B0
:1000B0005F0100085F0100085F0100085F010008A0
:1000C0005F0100085F0100085F0100085F01000890
:1000D0005F0100085F0100085F0100085F01000880
:1000E0005F0100085F0100085F0100085F01000870
:1000F0005F0100085F0100085F0100085F01000860
:100100005F0100085F0100085F0100085F0100084F
:100110005F0100085F0100085F0100085F0100083F
:100120005F0100085F0100085F0100085F0100082F
:10013000DFF80CD000F040F8004800479123000899
:10014000F0A000200648804706480047FEE7FEE78B
:10015000FEE7FEE7FEE7FEE7FEE7FEE7FEE7FEE777
:10016000611F000831010008D2B201E000F8012B44
:10017000491EFBD270470022F6E710B513460A4627
:1001800004461946FFF7F0FF204610BD30B50B4678
:10019000014600202022012409E021FA02F59D42B7
:1001A00005D303FA02F5491B04FA02F52844151E8B
:1001B000A2F10102F1DC30BD064C074D06E0E0681B
:1001C00040F0010394E8070098471034AC42F6D39E
:1001D000FFF7B2FFA0610008C0610008FEE7000061
:1001E00001B54FF47A7301226946024800F004FE1B
:1001F00008BD00005400002070472DE9F041C827D9
:10020000002119263B463A46084600F0E2F8002451
:100210002146002000F0C8F8242000F091F80025C5
:10022000FF2000F0A7F86D1CADB2B542F8D3641CF6
:10023000A4B2BC42ECD3BDE8F04100F0ECB82DE92B
:10024000F041C8278046002119263B463A46084619
:1002500000F0BFF800242146002000F0A5F824207B
:1002600000F06EF8002504FB065018F8000000F0BE
:1002700081F86D1CADB2B542F5D3641CA4B2BC428A
:10028000E9D3BDE8F04100F0C6B8000070B52B4CD2
:10029000054601220221204600F00BFAC82000F09A
:1002A000FDF800220221204600F003FAC82000F0E9
:1002B000F5F801220221204600F0FBF9C82000F0E9
:1002C000EDF8012000F03CF8C72000F053F80020C2
:1002D00000F050F8002000F04DF80C2000F030F84D
:1002E000D72000F047F8D62000F044F89D2000F019
:1002F00041F82C2000F024F8A82000F03BF83A2028
:1003000000F01EF81A2000F035F83B2000F018F835
:10031000082000F02FF8112000F012F8032000F060
:1003200029F8322000F00CF80024285D00F022F8B3
:10033000641CA4B21E2CF8D3002070BD000801403C
:1003400070B50B4C054600220421204600F0B1F99F
:1003500000221021204600F0ACF92846FFF740FFAC
:100360002046BDE870400122102100F0A2B9000033
:100370000008014070B50B4C0546012204212046BF
:1003800000F097F900221021204600F092F928464B
:10039000FFF726FF2046BDE870400122102100F043
:1003A00088B900000008014070B505460C464E2093
:1003B000FFF7C6FFC5F3C700FFF7DCFF4F20FFF7CD
:1003C000BFFFE0B2FFF7D6FF200ABDE87040FFF79D
:1003D000D1BF2DE9F04107461C4616460D46442084
:1003E000FFF7AEFFC7F3C700FFF7C4FFC6F3C700B0
:1003F000FFF7C0FF4520FFF7A3FFE8B2FFF7BAFF02
:10040000280AFFF7B7FFE0B2FFF7B4FF200ABDE804
:10041000F041FFF7AFBF10B52220FFF791FFC420D6
:10042000FFF7A8FF2020FFF78BFFFF20FFF788FFD3
:10043000BDE81040AFF3008010B509A001F0A0FEA8
:100440000D4C02E0642000F029F80821204600F05D
:100450002BF90128F6D0BDE8104008A001F090BEAD
:1004600044656275673A20652D506170657220623F
:100470007573790D0A00000000080140446562753B
:10048000673A20652D50617065722062757379201E
:1004900072656C656173650D0A00000070B50446F5
:1004A00000F00CF90546601C02D0044800780444B2
:1004B00000F004F9401BA042FAD370BD20000020D8
:1004C0002DE9F84FDFF8B8A100220AF1040B144619
:1004D00001274FF00F090BF1040E00BF0B6807FA5C
:1004E00004F52B40AB4274D1DFF898C14E68A6EBFF
:1004F0000C0866452BD00DDC032E34D005DC36B35A
:10050000012E19D0022E2FD11BE0112E16D0122E43
:100510002AD119E0B8F5881F19D006DCB8F5803F5C
:1005200015D0B8F5801F1FD111E0B8F5001F0ED00F
:10053000B8F5041F18D10AE0CA6815E0CA68121D90
:1005400012E0CA6808320FE0CA680C320CE08A6810
:100550002AB1012A4FF0080203D0456104E00422C9
:1005600002E0056100E00022FF2B01D8064601E011
:1005700000F104064FEA840501D9A5F12005D6F85B
:1005800000C009FA05F82CEA080C02FA05F54CEA55
:10059000050CC6F800C04D68ED006AD53A4DAE694D
:1005A00046F00106AE61AD6924F0030605F00105D1
:1005B0000095364D06EB050CDCF80850A6074FEA0F
:1005C000167809FA08F6B543314EB04202D100263A
:1005D0001AE04EE02F4EB04201D1012614E02E4E1B
:1005E000B04201D102260FE02C4EB04201D10326C9
:1005F0000AE02B4EB04201D1042605E0294EB0425C
:1006000001D1052600E0062606FA08F62E43CCF8AE
:1006100008604D68DAF80060ED03554601D51E43C9
:1006200000E09E432E604D68AD0305D5DBF8006009
:100630001E43CBF8006004E0DBF800509D43CBF88C
:1006400000504D68DEF80060ED02754601D51E438E
:1006500000E09E432E604D68AD0205D5084D0C3577
:100660002E681E432E6004E0054E0C3635689D430F
:100670003560641C102CFFF431AFBDE8F88F00002A
:100680000004014000001110001002400000014071
:1006900000080140000C014000100140001401401E
:1006A00000180140001C01408068084000D0012073
:1006B00070470AB1016170470904FBE7014880688F
:1006C0007047000020000020024881680278114431
:1006D0008160704720000020074810B5016841F094
:1006E00010010160032000F089F8002000F006F8F6
:1006F00000F024F8002010BD0020024070B50D4D20
:1007000004464FF47A712878B1FBF0F00A49096881
:10071000B1FBF0F000F031FC48B9102C07D20022F8
:100720002146501E00F04AF800206C6070BD012088
:1007300070BD0000200000202C0000201D4808B5DE
:10074000816941F001018161806900F00100009040
:10075000032000F053F8002211466FF00B0000F068
:100760002DF8002211466FF00A0000F027F8002251
:1007700011466FF0090000F021F800221146501FC9
:1007800000F01CF800221146101F00F017F800229C
:100790001146901E00F012F800221146501E00F083
:1007A0000DF80548416821F0E06141F000714160B9
:1007B00008BD00000010024000000140F0B40E4BE4
:1007C0001B680C46C3F30223C3F10705042D00D9AF
:1007D0000425191D072901D2002300E0DB1E012694
:1007E00006FA05F1491E214099409E40761E1640AA
:1007F0003143F0BC00F014BD0CED00E0064900F000
:10080000070208684FF6FF03184040EA0220034A37
:1008100010430860704700000CED00E00000FA058E
:100820002DE9F047DFF83C8105460E46D8F8000078
:1008300000F00700B0420CD2D8F8001021F00701F8
:100840003143C8F80010D8F8000000F00700B042AB
:1008500063D12878444C800705D56068A96820F0EA
:10086000F000084360602878C00745D06868012818
:1008700016D02168022816D0890700294DDA616850
:1008800021F0030101436160FFF718FF6968074623
:1008900041F2883001290FD00229814619D027E082
:1008A00021688903E9E78901E7E700BFFFF706FF51
:1008B000C11B494501D918E081466068C0F3810039
:1008C0000128F3D118E000BFFFF7F8FEC11B49452E
:1008D0000BD86068C0F381000228F5D10CE000BF9E
:1008E000FFF7ECFEC11B494502D90320BDE8F087A4
:1008F000606810F00C0FF3D1D8F80010404601F0FA
:100900000701B1420BD9016821F0070131430160B1
:10091000006800F00700B04201D00120E6E7287827
:10092000400705D56068E96820F4E060084360602E
:100930002878000706D56068296920F4605040EAED
:10094000C100606000F03CF86168084AC1F303111F
:10095000515CC840064908600020FFF7CFFE002028
:10096000C4E70000002002400010024000610008BF
:100970002C00002001480068704700002C00002077
:100980000448054900684968044AC1F30221515CE2
:10099000C84070472C000020001002401061000881
:1009A0000448054900684968044AC1F3C221515C02
:1009B000C84070472C000020001002401061000861
:1009C00012A185B00FC98DE80F0014A0144A006869
:1009D00004905168134801F00C03042B10D0082B2D
:1009E0000ED1C1F38343C9031DF803000AD5516832
:1009F00004AAC1F34041515C0A4A5043B0FBF1F0F4
:100A000005B0704708494843FAE7000002030405AF
:100A1000060708090A0B0C0D0E0F1010010200004A
:100A20000010024000127A0000093D002DE9F84F45
:100A300004460078B94DC00748D06868C0F381000B
:100A4000012807D06868C0F38100022809D16868CE
:100A5000C00306D52868800338D5606800286FD0A9
:100A600034E06068B0F5803F0BD010B1B0F5A02F36
:100A700011D0286820F480302860286820F4802075
:100A800002E0286840F480302860606888B1FFF791
:100A900015FE064609E0286840F480202860F0E74B
:100AA000FFF70CFE801B642875D828688003F7D5F3
:100AB0000CE0FFF703FE064605E000BFFFF7FEFD72
:100AC000801B6428F0D828688003F7D42078944EDF
:100AD00080074FF001094FF000083BD5686810F01F
:100AE0000C0F07D06868C0F38100022809D168683C
:100AF000C00306D42868800714D5206901281FD1B7
:100B000010E02069B0B1C6F80090FFF7D7FD0746A6
:100B100005E000BFFFF7D2FDC01B0228C4D828683B
:100B20008007F7D52868616920F0F80040EAC10025
:100B300028600FE0C6F80080FFF7C0FD074606E01A
:100B4000E9E000BFFFF7BAFDC01B022823D82868E0
:100B50008007F7D4207800072CD57248A169D9B155
:100B6000C0F80090FFF7AAFD074604E0FFF7A6FDD6
:100B7000C01B02280FD8686A8007F7D56A484FF46F
:100B8000FA510068B0FBF1F0009000BF0098411EE0
:100B90000091FAD20EE080E0C0F80080FFF78EFDF1
:100BA000074604E0FFF78AFDC01B022875D8686A73
:100BB0008007F7D42078400760D5E8690027C00097
:100BC00008D4E86940F08050E861E869012700F046
:100BD0008050009055480168C90513D401688346C8
:100BE00041F480710160FFF769FD824606E000BFB5
:100BF000FFF764FDA0EB0A0064284ED8DBF8000084
:100C0000C005F5D5E06801280AD008B1052813D041
:100C1000286A20F001002862286A20F0040002E01F
:100C2000286A40F001002862E06841F2883B98B1F0
:100C3000FFF744FD82460BE0286A40F0040028627A
:100C4000EEE700BFFFF73AFDA0EB0A0159455AD87D
:100C5000286A8007F6D50CE0FFF730FD824605E0F4
:100C6000FFF72CFDA0EB0A0159454CD8286A8007F4
:100C7000F6D41FB1E86920F08050E861E06988B3DC
:100C80006968C1F38101022945D00228C6F8608055
:100C900004D0FFF713FD044638E034E0FFF70EFD03
:100CA000074604E0FFF70AFDC01B02282BD828687E
:100CB0008001F7D4206AB0F5803F05D16868A1684B
:100CC00020F4003008436860D4E9080108436968EB
:100CD00021F4741108436860C6F86090FFF7EEFCD9
:100CE000044606E015E000BFFFF7E8FC001B022801
:100CF00009D828688001F7D50BE000BFFFF7DEFCBC
:100D0000001B022802D90320BDE8F88F2868800163
:100D1000F4D40020F8E70120F6E7000000100240BC
:100D200000004242800442422C000020007000403B
:100D300070B5040005D00025A56294F8510010B1EB
:100D400004E0012070BD204600F034F8022084F851
:100D500051002068016821F040010160D4E90101DF
:100D60000843D4E903121143084361690843218B06
:100D700001F400710843E1690843216A0843A16A4C
:100D8000084321680860A069042101EA1040616AF3
:100D90000843216848602168E06A08612068C169E9
:100DA00021F40061C1616565012084F851000020D3
:100DB00070BD000000B500680C4985B0884212D1B2
:100DC0000B48816941F4805181618069694600F472
:100DD00080500490A02000900220019003200390F6
:100DE0000448FFF76DFB05B000BD00000030014076
:100DF00000100240000801402DE9F84F044690F829
:100E000050000026994617460D4601280DD04FF098
:100E1000010B84F850B0FFF751FC804694F8510064
:100E2000B246012804D0022694E00220BDE8F88FE3
:100E3000002D7BD0002F79D0032084F85100C4F816
:100E400054A02563A786E786C4F838A0A4F83CA080
:100E5000A4F83EA0C4F844A0C4F840A0A068B0F52F
:100E6000004F04D12068016841F48041016020688E
:100E70000168490603D4016841F040010160E0685F
:100E8000B0F5006F606804D030B3E08E012823D045
:100E90003EE010B1E08E01281AD135F8021B20681F
:100EA00005E020688168890706D535F8021BC16016
:100EB000E08E401EE0860BE0B9F1000F34D0B9F1AE
:100EC000FF3F05D0FFF7FAFBA0EB080149452BD205
:100ED000E08E0028E5D11EE0216815F8010B0873AB
:100EE00006E020688168890706D515F8011B0173A3
:100EF000E08E401EE0860BE0B9F1000F14D0B9F18E
:100F0000FF3F05D0FFF7DAFBA0EB080149450BD204
:100F1000E08E0028E5D14B46012202212046CDF883
:100F2000008000F096FF10B1032613E011E0424666
:100F30004946204600F07DFF18B10126202060655B
:100F400008E0A06818B92068C16880680090606DEA
:100F500000B1012684F851B084F850A0304665E70E
:100F60004FF0E0210428086903D020F00400086154
:100F7000704740F00400FAE7704710B5401EB0F12A
:100F8000807F01D3012010BD4FF0E02460610F216C
:100F9000601700F045F90020A061072020610020C3
:100FA00010BD10B5FFF7E8FF10BD70B5040004D008
:100FB00094F83900002510B106E0012070BD84F8D6
:100FC0003850204600F022F8242084F839002068A8
:100FD000C16821F40051C160204600F0E5FF20689F
:100FE000016921F4904101612068416921F02A01E1
:100FF00041612068C16841F40051C160E56320206F
:1010000084F8390084F83A00002070BD10B50068FB
:10101000114986B088421DD11048816941F4804150
:10102000816180690E4C00F4804004904FF40070A0
:101030000090022001900320039069462046FFF7AC
:101040003FFA00212015CDE90001029169462046B2
:10105000FFF736FA06B010BD00380140001002401C
:10106000000801402DE9F843044690F839001F4676
:1010700016460D46202850D1A5B19EB194F83800EF
:1010800001284AD0012084F838004FF00008C4F845
:101090003C80212084F83900FFF710FBA6848146AC
:1010A000E68426E00120BDE8F883E08C401EE08461
:1010B000A0684B46B0F5805F4FF000024FF0800112
:1010C0002046009703D001F027F8E8B90DE001F0C1
:1010D00023F8C8B928882168C0F30800486020694F
:1010E00008B16D1C05E0AD1C03E0216815F8010B8B
:1010F0004860E08C0028D8D14B4600224021204691
:10110000009701F009F808B10320CCE7202084F80B
:10111000390084F838800020C5E70220C3E7FEE7E5
:10112000124810B5816986B041F00401816180697F
:101130000F4C00F004000490002216212046FFF717
:10114000B8FA162000900120019002200390694611
:101150002046FFF7B5F900210820CDE900010291F2
:1011600069462046FFF7ACF906B010BD00100240FA
:1011700000080140114810B50F4901604FF4827119
:10118000416000218160C1604FF400720161C0E9DB
:1011900005122822C0E90721416281620A21C16249
:1011A000FFF7C6FD002805D0BDE81040272104A0A8
:1011B00000F0E5BF10BD00000030014054000020E9
:1011C0002E2E2F5372632F7370692E630000000060
:1011D0000D4810B50B4901604FF4E1314160002129
:1011E00081600C22C160C0E904128161C161FFF716
:1011F000DCFE002805D0BDE81040242103A000F04B
:10120000BEBF10BD00380140AC0000202E2E2F5371
:1012100072632F75736172742E630000FEE770476E
:101220000907090E002806DA00F00F0000F1E0209F
:1012300080F8141D704700F1E02080F8001470471A
:1012400030B500210A4AC3B20DE0002006E000BF1D
:1012500001FB04041568401C80B22B55548A84425B
:10126000F6D8491C89B2908A8842EED830BD000079
:101270003C0000202DE9F0471F4616460D468046EB
:10128000DDF820900CE0444606E04A462946204618
:1012900000F066FD641CA4B2B442F6D36D1CADB27E
:1012A000BD42F0D3BDE8F08770B50022094B0DE0D8
:1012B000002106E002FB04141E68055D491C35553B
:1012C00089B25C8A8C42F5D8521C92B2998A9142BA
:1012D000EED870BD3C0000202DE9F05F81462A4821
:1012E0001E46DDF828B0838888464B4502D3C18866
:1012F000414504D2BDE8F05F24A000F041BFB088B2
:10130000410700D0012101EBD000203AF188504381
:10131000484331684FF0800A0F1800252FE0002461
:1013200024E000BFBBF1FF0F3A7804F007012AFA6E
:1013300001F002EA000201D00AB908E082B108EB2C
:10134000050081B209EB040080B20B9A06E008EBBD
:10135000050081B209EB040080B25A4600F000FD9E
:10136000E043400700D17F1C641CA4B2B088A042B7
:10137000D8D83079400700D07F1C6D1CADB2F08802
:10138000A842CCD8BDE8F09F3C00002044656275BF
:10139000673A205061696E745F4472617743686197
:1013A0007220496E7075742065786365656473207A
:1013B000746865206E6F726D616C20646973706C07
:1013C00061792072616E67650D0A00002DE9FF4F9B
:1013D0008046834885B00F4684881299444502D3DD
:1013E000C088B84205D809B07E48BDE8F04F00F08B
:1013F000C7BE03200024A0EB420015B20FFA80FA0A
:1014000001297AD0E9E0264661E000BF4FF00109EA
:1014100008EB040007EB060B02901FFA8BF1CDF8E6
:10142000009080B24B46089A00F0CEF9A8EB040079
:1014300004901FFA8BF1CDF8009080B20123089A36
:1014400000F0C2F93819CDE9009081B2A8EB060B83
:101450001FFA8BF00123089A00F0B6F9381B0390AD
:1014600081B2CDF800901FFA8BF00123089A00F0AA
:10147000ABF90498A7EB060B1FFA8BF1CDF800909F
:1014800080B20123089A00F09FF902981FFA8BF1AD
:10149000CDF8009080B20123089A00F095F90398E6
:1014A00008EB060B81B2CDF800901FFA8BF00123F8
:1014B000089A00F089F90198CDF8009081B21FFADE
:1014C0008BF00123089A00F07FF9761C36B2AE4209
:1014D0009CDDBAF1000F06DA0AEB8400801D0FFADA
:1014E00080FA08E009E0611B0AEB81000A306D1EFA
:1014F0000FFA80FA2DB2641C24B2AC4283DD09B02D
:10150000BDE8F08F08EB0400012607EB0509029007
:101510001FFA89F1009680B2139B089A00F054F9E3
:10152000A8EB040003901FFA89F1009680B2139B88
:10153000089A00F049F93819CDE9006081B2A8EBAA
:1015400005091FFA89F0139B089A00F03DF9A7EBF3
:10155000040B1FFA8BF11FFA89F00096139B089A6F
:1015600000F032F90398A7EB05091FFA89F10096FC
:1015700080B2139B089A00F027F902981FFA89F1AC
:10158000009680B2139B089A00F01EF908EB05093B
:101590001FFA8BF11FFA89F00096139B089A00F04E
:1015A00013F90198009681B21FFA89F0139B089AEB
:1015B00000F00AF9BAF1000F05DA0AEB8400801D89
:1015C0000FFA80FA07E0611B0AEB81000A306D1EFA
:1015D0000FFA80FA2DB2641C24B2AC4292DD8EE781
:1015E0003C0000205C6100082DE9FE4F1D46304B99
:1015F00016469A88824206D3DB888B4203D3B242D6
:1016000001D3AB4204D2BDE8FE4F2AA000F0B8BD22
:1016100083468A46321A00D5821B91466A1A002AEE
:1016200000DD4A1B90464FF0FF32B34501D2012046
:1016300000E010460290AA4500D2012209EB0804FE
:10164000002701927F1C0D98FFB2012805D10320CD
:10165000B7FBF0F100FB1170F0B101200090514692
:1016600058460E9B0C9A00F0AFF800BFB8EB440F41
:1016700006DCB3451AD00298444458441FFA80FB54
:10168000B9EB440FDEDBAA4510D001994C440AEBBC
:1016900001001FFA80FAD5E701200090FF22514691
:1016A00058460E9B00F090F80027DFE7BDE8FE8F5C
:1016B0003C00002044656275673A205061696E7491
:1016C0005F447261774C696E6520496E7075742055
:1016D0006578636565647320746865206E6F726DEC
:1016E000616C20646973706C61792072616E6765EA
:1016F0000D0A00002DE9FF4FADF5037D8846DDE9B9
:1017000090BA814600244FF4807715462646394624
:1017100042A8FEF730FD394602A8FEF72CFD194815
:1017200042AA83884B4503D3C38802A8434512D2FB
:1017300015A000F025FD0DF5077DBDE8F08F00BF79
:1017400095FBF1F301FB135395FBF1F53033035592
:10175000641C24B200E00A21002DF1D11146002CB6
:1017600008DD031913F8013C8B55761C641E36B254
:1017700024B2F4E7CDE900BA41464846869B00F022
:10178000CBF9D8E73C00002044656275673A2050E9
:1017900061696E745F4469734E756D20496E707532
:1017A00074206578636565647320746865206E6F66
:1017B000726D616C20646973706C61792072616E06
:1017C00067650D0A000000002DE9F05F814626489C
:1017D0001C46884683880A9993464B4502D3C288A3
:1017E000424504D2BDE8F05F20A000F0C9BC012949
:1017F00001D0002634E00025681E00EB440718E005
:1018000009EB05000026A0EB040A0EE0BAF1000F78
:101810000DD408EB0600001B09D481B21FFA8AF030
:101820005A4600F09DFA761C36B2B742EEDC6D1CCB
:101830002DB2AF42E4DCBDE8F09F002509EB0607BE
:101840007F1E09E008EB0500401E81B2B8B25A467F
:1018500000F086FA6D1C2DB2A542F3DB761C36B281
:10186000A642EADBE7E700003C0000204465627521
:10187000673A205061696E745F44726177506F6996
:101880006E7420496E707574206578636565647345
:1018900020746865206E6F726D616C20646973706E
:1018A0006C61792072616E67650D0A002DE9FE4F4B
:1018B0008246274891460C46DDE90D2581880C9E1D
:1018C0001F46514506D3C088A04203D3494501D3E2
:1018D000B84204D2BDE8FE4F1EA000F051BC00206B
:1018E00080465AB90EE00096CDE9018523464A4666
:1018F00019465046FFF778FE641CA4B2BC42F2D3EE
:10190000BDE8FE8F0096CDE9018523464A4619467B
:101910005046FFF769FE0096CDE9018552463B46E9
:1019200021461046FFF760FE0096CDE901854A4644
:10193000234639461046FFF757FE0096CDE901854C
:101940003B46524619464846FFF74EFED8E7000090
:101950003C00002044656275673A20496E707574DA
:10196000206578636565647320746865206E6F72A6
:101970006D616C20646973706C61792072616E674F
:10198000650D0A002DE9F05F1D46904606468A4621
:10199000DDF828B0B6E07F294FF0000054D8AA88BF
:1019A0004CE053232C68434314F813308B4244D14A
:1019B00053214843022101EB400004EB00090027BA
:1019C00037E000242CE000BF4FEAE47004EB5070D5
:1019D00020F00700A4EB0002BBF1FF0F99F8001004
:1019E0004FF0800020FA02F001EA000101D009B9AD
:1019F00007E071B10AEB070081B2301980B20B9A8F
:101A000005E00AEB070081B2301980B25A4600F0B7
:101A1000A7F940482040072801D109F10109641CB9
:101A20002889A042D0DC287A400701D009F10109B9
:101A30007F1C6889B842C4DC02E0401C8242B0DCF2
:101A400008F10108E8885CE00127AB8854E05322E4
:101A50002C68424314F812C08C454CD107EB42026B
:101A6000A45C98F80120944245D1532250430222AD
:101A7000296802EB400001EB0009002737E0002451
:101A80002CE000BF4FEAE47004EB507020F0070038
:101A9000A4EB0002BBF1FF0F99F800104FF080009B
:101AA00020FA02F001EA000101D009B907E071B1A2
:101AB0000AEB070081B2301980B20B9A05E00AEBFD
:101AC000070081B2301980B25A4600F049F9114836
:101AD0002040072801D109F10109641C2889A0428E
:101AE000D0DC287A400701D009F101097F1C688900
:101AF000B842C4DC02E0401C8342A8DC288908F11B
:101B00000208064498F8001000297FF444AFBDE8AD
:101B1000F09F0000070000802DE9FC5F80461B4815
:101B200089460D4681884446DDF834B01E46174686
:101B3000A14203D3C1888246A94222D2BDE8FC5FFC
:101B4000134800F01DBBB088BAF80430011999425F
:101B500003D9F188444629448DB2F188BAF80600C9
:101B60002944814201D944464D460C99CDE9001BD8
:101B7000334629462046FFF7AFFBB0887F1C204440
:101B800084B23A78002ADED1BDE8FC9F3C000020F8
:101B9000186100082DE9FF4F85B046A11746804621
:101BA000DDE9126507C902AB4FF00A0983E80700B7
:101BB00039790898B1FBF9F19A4684881AF801201E
:101BC000CDE900654046089B0699FFF785FB39790A
:101BD00008EB040BB1FBF9F209FB12111FFA8BF0B1
:101BE0001AF80120CDE90065089B0699FFF774FB00
:101BF000CDE900650BEB940000EB540080B23A2273
:101C0000089B0699FFF768FB797908EB4400B1FB64
:101C1000F9F100EB54001AF80120CDE9006580B21B
:101C2000089B0699FFF758FB797904EB440BB1FB4D
:101C3000F9F209FB12110BEB08001AF80120CDE9AB
:101C4000006500EB540080B2089B0699FFF744FB47
:101C500008EB8400CDE9006500EB5400A0EB940094
:101C600080B23A22089B0699FFF736FBB979089BA8
:101C7000B1FBF9F11AF8012004EB8401CDE900650C
:101C800001EB080080B20699FFF726FBBA7908EB52
:101C90004B00B2FBF9F109FB112180B21AF80120C7
:101CA000CDE90065089B0699FFF716FB09B0BDE872
:101CB000F08F000030313233343536373839000098
:101CC0002DE9F041134C0E46069920602681628171
:101CD000A1811F4615464FF0000870074FEAD60154
:101CE00000D0491C6182A5822A460BA000F048FA68
:101CF0000F2112A000F044FAE781A4F810802FB160
:101D0000B42F03D0A580E680BDE8F081A680E580F1
:101D1000FAE700003C000020576964746842797457
:101D200065203D2025642C204865696768744279E8
:101D30007465203D2025640D0A00000020455044B4
:101D40005F5749445448202F2038203D2025640DFA
:101D50000A00000001490860704700003C000020B4
:101D6000F0B4284CA388834234D3E3888B4231D328
:101D70002346E7891E895D89CFB15A2F1AD0B42F27
:101D80001CD0B7F5877F38D10B46281A401E80B289
:101D9000218AD9B1012916D0022904D003292CD1D6
:101DA000F11A491E8BB2281A401E80B20EE003467B
:101DB0000846EDE7711A491E8BB2E9E7301A401E5A
:101DC00083B2681AE2E7F11A491E8BB29E4201D330
:101DD000854203D2F0BC0CA000F0D2B9618A414325
:101DE00001EBD30521688020002A4C5D03F0070237
:101DF00020FA02F003D020434855F0BC70478443DA
:101E00004C55FAE73C00002044656275673A20456E
:101E10007863656564696E6720646973706C617965
:101E200020626F756E6461726965730D0A0000004F
:101E3000704738B50B46009204460022802100F01E
:101E400008F8002804D0606D40F020006065032091
:101E500038BD2DE9F0411D4617460E460446DDF813
:101E6000188035E0681C33D02DB1FEF727FCA0EBBD
:101E70000800A8422CD32068416821F0E0014160AD
:101E80006068B0F5827F0BD1A068B0F5004F02D03A
:101E9000B0F5806F04D12068016821F04001016035
:101EA000A06AB0F5005F0AD1206801684DF6FF72A4
:101EB000114001602068016841F400510160012077
:101EC00084F85100002084F850000320BDE8F08120
:101ED0002068806836EA000004D00020B842C1D1F2
:101EE0000020F3E70120F9E7704710B5FEF7ECFB9F
:101EF000BDE81040FFF755B830B58FB00121080498
:101F0000CDE900100024029402250491CDE9075088
:101F10004FF4E01009906846FEF788FD00B1FEE737
:101F20000F20CDE90A054FF48060CDE90C40022175
:101F30000AA80E94FEF774FC00B1FEE7FEF71AFD46
:101F40004FF47A71B0FBF1F0FFF717F80420FFF7B8
:101F500007F800221146501EFEF730FC0FB030BDCE
:101F60000D48016841F00101016041680B4A1140D0
:101F7000416001680A4A11400160016821F4802132
:101F80000160416821F4FE0141604FF41F0181604E
:101F90000449C00308607047001002400000FFF8C9
:101FA000FFFFF6FE08ED00E02DE9F0410446006871
:101FB0000169E26821F44051114301612169A0687F
:101FC0000843616908432168CA6841F20C639A4377
:101FD0000243CA6020684169A26921F4407111433B
:101FE00041614C4920686425322688423CD1FEF785
:101FF000D7FC00EBC00101EB001061688900B0FB69
:10200000F1F7FEF7CDFC00EBC00101EB00106168B9
:10201000B0468900B0FBF1F0B0FBF5F06FF01801AD
:10202000484307EB800106EB0110B0FBF5F000F030
:10203000F006FEF7B5FC00EBC00101EB0010616893
:102040008900B0FBF1F0B0FBF5F006EB0016FEF7EF
:10205000A7FC00EBC00101EB001061688900B0FB38
:10206000F1F7FEF79DFC3BE0FEF78AFC00EBC001B8
:1020700001EB001061688900B0FBF1F7FEF780FC0E
:1020800000EBC00101EB00106168B0468900B0FBB5
:10209000F1F0B0FBF5F06FF01801484307EB800159
:1020A00006EB0110B0FBF5F000F0F006FEF768FC5F
:1020B00000EBC00101EB001061688900B0FBF1F09A
:1020C000B0FBF5F006EB0016FEF75AFC00EBC00182
:1020D00001EB001061688900B0FBF1F7FEF750FCDE
:1020E00000EBC00101EB001061688900B0FBF1F06A
:1020F000B0FBF5F06FF01801484307EB800108EBE7
:102100000110B0FBF5F0216800F00F00304488604A
:10211000BDE8F081003801402DE9F04198461746AE
:102120000E460446069D1DE0681C1BD02DB1FEF72F
:10213000C5FAA0EB0800A84214D92068C16821F4B0
:10214000D071C1602068416921F001014161202006
:1021500084F8390084F83A00002084F8380003201D
:10216000BDE8F0812068006836EA000004D0002055
:10217000B842D9D00020F3E70120F9E7FEE7FEE7F7
:102180000FB4054B10B503A9044A029800F018F8E3
:1021900010BC5DF814FB000079230008300000201B
:1021A00002E008C8121F08C1002AFAD17047704720
:1021B000002001E001C1121F002AFBD1704700007E
:1021C0002DE9FF4F8BB09A460F460546002606E0E4
:1021D00025280BD052460D9990476D1C761C287807
:1021E0000028F5D10FB03046BDE8F08F0024A0469E
:1021F0000122604900E0044315F8013F203B02FA48
:1022000003F00842F7D128782E2817D115F8010FCE
:1022100044F004042A280ED06FF02F022878A0F191
:10222000300109290AD808EB880102EB410100EBD3
:1022300001086D1CF2E757F8048B6D1C287869289B
:102240003ED006DC0028CDD063280BD0642804D112
:1022500036E0732810D075284BD052460D99904720
:10226000761C85E017F8040B8DF8000000208DF82F
:102270000100E946012003E057F8049B4FF0FF30CE
:1022800061074FF0000401D40AE0641C44450DDAF4
:102290008442FADB19F804100029F6D106E0641C28
:1022A0008442FCDB19F804100029F8D1264404E02C
:1022B00019F8010B52460D999047641EF8D257E069
:1022C00001CF4FF00A0B002802DA40422D2102E034
:1022D000210504D52B218DF82410012103E0E1070D
:1022E00005D02021F7E70DF1200908910CE000212D
:1022F000F9E701CF4FF00A0BF9E75946FDF746FF22
:1023000001F1300209F8012D0028F6D1ADEB0900EA
:1023100000F1200B600701D44FF00108D84502DD21
:10232000A8EB0B0000E000208046002406E009A88E
:102330005246005D0D999047641C761C08988442B3
:10234000F5DB04E0302052460D999047761CB8F139
:102350000001A8F10108F5DC05E019F8010B52466F
:102360000D999047761CBBF10001ABF1010BF4DC39
:102370006D1C34E70928010013B54FF6FF730122E5
:1023800069460248FEF76EFE00981CBDAC000020B6
:102390002DE9F04385B0FEF79FF9FFF7ADFDFEF79D
:1023A000BFFEFEF715FFFEF7E5FE9348FDF76EFF53
:1023B00010B192A0FFF7E4FEFDF71FFF4FF4FA778C
:1023C0003846FEF76BF841F2883000F069F95FEAB1
:1023D00000097DD08FA0FFF7D3FEFF26C8224FF45F
:1023E0008773114648460096FFF76AFC4846FFF798
:1023F000B1FCFF20FEF724FF8BA0FFF7C1FE48468B
:10240000FFF7A8FCFF20FEF71BFF8D48FEF74CFFEF
:102410004846FDF714FF4FF4FA684046FEF73EF8D1
:102420004846FFF797FCFF20FEF70AFF01242346EA
:1024300000220A2105200094FFF7C6F9022300229A
:10244000192105200094FFF7BFF90323002228215A
:1024500005200094FFF7B8F9042300223721052056
:102460000094FFF7B1F900250095CDE901543C2314
:1024700046220A211420FFF7B7F80095CDE9015450
:102480003C2314220A214620FFF7AEF8CDE9005480
:10249000AA2237230F2110460294FFF7A5F8CDE9B1
:1024A00000542323BE22194696200294FFF79CF87D
:1024B0000095CDE901543C2346220A211420FFF760
:1024C000F5F9CDE900543C2382220A21552000E091
:1024D00055E00294FFF7EAF9CDE9005400231422F5
:1024E0002321AA20FEF772FF009400231422552115
:1024F000AA200194FEF76AFFCDE90056514B52A283
:1025000055210520FFF708FBCDE900564D4B514AF8
:102510006E210520FFF7EEF8CDE900564E4B4FA295
:1025200087210520FFF72EFACDE900654D4B4EA21D
:10253000A0210520FFF726FA4846FDF780FE404619
:10254000FDF7ACFF4B48FDF7A1FE10B12BA0FFF744
:1025500017FE4846FFF7FEFB0C208DF810002220E6
:102560008DF811003820374C8DF812009DF81200BC
:10257000401CC0B28DF812003C2807D020E03EA0DD
:10258000FFF7FEFD05B00020BDE8F0839DF81100C7
:10259000401CC0B28DF811008DF812503C280FD1AC
:1025A0009DF81000401CC0B28DF810008DF811503D
:1025B000182805D18DF810508DF811508DF8125053
:1025C0000096E0884121413083B2A088C0EBC00072
:1025D0000F3082B20F20FEF74DFECDE90065194B9A
:1025E00003AA41210F20FFF7D5FA4846FDF727FE41
:1025F0003846FDF753FFB9E70C270008652D5061F9
:1026000070657220696E6974206661696C65640D1D
:102610000A0000005061696E745F4E6577496D6114
:1026200067650D0A0000000073686F7720696D61AF
:10263000676520666F722061727261790D0A000011
:10264000482700080C000020776176657368617286
:102650006500000015CD5B0700000020C4E3BAC38D
:102660006162630014000020CEA2D1A9B5E7D7D3E0
:10267000000000002A2700084661696C6564207428
:102680006F206170706C7920666F7220626C61637C
:102690006B206D656D6F72792E2E2E0D0A00000075
:1026A000F0B50B30154D20F007010024144A0FE05F
:1026B00003688B420BD38B4205D95E1A43184768D7
:1026C000C3E9006700E04368136002C004E0021D34
:1026D00010680028ECD12046002802D1286808B1F3
:1026E0000020F0BD064A07481060074A121A22F07F
:1026F0000702C0E9002401202860D7E73800002045
:1027000034000020F4000020F090002002020111AB
:1027100012122222666969595899998800000000AE
:10272000F8B4135135515119010010181808181830
:10273000080000000000000000000000000013146A
:102740004412000000000000FFFFFFFFFFFFFFFF3B
:102750008FFFFFFFFFFFFFFFF1FFFFFFFFFFFFFF07
:10276000FFFFFFFFFFFFFFFFFF8FFFFFFFFFFFFFE9
:10277000FFF1FFFFFFFFFFFFFFFFFFFFFFFFFFFF77
:10278000FFFF8FFFFFFFFFFFFFFFF1FFFFFFFFFFD7
:10279000FFFFFFFFFFFFFFFFFFFFFF8FFFFFFFFFB9
:1027A000FFFFFFF1FE01FFFFFFFFFFFFFFFFFFFF46
:1027B000FFFFFFFF8FFFFFFFFFFFFFFFF1F8007F2D
:1027C000FFFFFFFFFFFFF7FF3FFFFFFFFF8FFFFF51
:1027D000FFFFFFFFFFF1F0003FFFFFFFFFFFFFE103
:1027E000FE1FFFFFFFFF8FFFFFFFFFFFFFFFF1F067
:1027F000001FFFFFFFFFFFFFE3FF1FFFFFFFFF8F34
:10280000FFFFFFFFFFFFFFF1E0001FFFFFFFFFFFE4
:10281000FFE3FF9FFFFFFFFF8FFFFFFFFFFFFFFFB4
:10282000F1E1E30000000001FFFFE7FF8FFFFFFF82
:10283000FF8FFFFFFFFFFFFFFFF1C3F30FFFFFFF5E
:10284000FCFFFFE3FF8FFFFFFFFF8FFFFFFFFFFF97
:10285000FFFFF1C33B0FFFFFFFFEFFFFE3FF1FFF83
:10286000FFFFFF8FFFFFFFFFFFFFFFF1C30F0FFF12
:10287000FFFFFEFFFFE1FE1FFFFFFFFF8FFFFFFFD8
:10288000FFFFFFFFF1C30F0FFFFFFFFEFFFFF0FC95
:102890001FFFFFFFFF8FFFE3FFFFFFFFFFF1C38776
:1028A0000FFFFFFFFEFFFFF0003FFFFFFFFF8FFF67
:1028B000E07FFFFFFFFFF1C1030FFFFFFFFEFFFF00
:1028C000F8007FFFFFFFFF8FFFE00FFFFFFFFFF12B
:1028D000E0001FFFFFFFFEFFFFFE01FFFFFFFFFF06
:1028E0008FFFFC03FFFFFFFFF1E0001FFFFFFFFE74
:1028F000FFFFFFFFFFFFFFFFFF8FFFFF807FFFFF57
:10290000FFF1F0003FFFFFFF7EFFFFFBFFFFFFFF38
:10291000FFFF8FFFFFF01FFFFFFFF1F8007FFFFFBA
:10292000FC3EFFFFE0FFFFFFFFFFFF8FFFFF001FE9
:10293000FFFFFFF1FE00FFFFFFF03EFFFFC67FFF3E
:10294000FFFFFFFF8FFFF8078FFFFFFFF1FE87FFFD
:10295000FFFFE0CEFFFFCE7FFFFFFFFFFF8FFFE017
:102960001F8FC007FFF1FEFFFFFFFF8186FFFFCE35
:102970007FFFFFFFFFFF8FFFE0FFCF8007FFF1FE2C
:10298000FFFFFFFF0206FFFFC67FFFFFFFFFFF8F76
:10299000FFE3FFEF0007FFF1FEFFFFFFFE0C02FF6A
:1029A000FFE0FFFFFFFFFFFF8FFFFFFFFF1FFFFFA6
:1029B000F1FEFFFFFFFE1802FFFFFBFFFFFFFFFF1F
:1029C000FF8FFFFFFFFF1FFFFFF1FEFFFFFFFE2056
:1029D00000FFFFFFFFFFFFFFFFFF8FFFFE01FF1F55
:1029E000FFFFF1FEFFFFFFFEC002FFFFFF03FFFF3F
:1029F000FFFFFF8FFFF001FF9FFFFFF1FEFFFFFFD3
:102A0000FF0002FFFFF8007FFFFFFFFF8FFFE001E5
:102A1000E0800FFFF1FEFFFFFFFF0002FFFFF0006D
:102A20003FFFE7FFFF8FFFE003E00007FFF1FEFF3E
:102A3000FFFFFF8006FFFFE0CC1FFFE0FFFF8FFFDF
:102A4000E271E00007FFF1FEFFFFFFFFC00EFFFF96
:102A5000E3C71FFFE03FFF8FFFE739E0000FFFF103
:102A6000FEFFFFFFFFC00EFFFFE7E78FFFF007FF4E
:102A70008FFFE738FFFFFFFFF1FEFFFFFFFF001EA4
:102A8000FFFFE7E78FFFFE01FF8FFFE310FFFFFF70
:102A9000FFF1FEFFFFFFFC003EFFFFE3C78FFFFFDC
:102AA000C07F8FFFE301FF1FC7FFF1FEFF83FFF031
:102AB000007EFFFFE0071FFFFFF83F8FFFF381FF5E
:102AC0001FC7FFF1FEFC01FFE000FEFFFFF00F1F3C
:102AD000FFFFC01F8FFFFFC7FF1FC7FFF1FEF007FB
:102AE000FF8001FEFFFFF81FBFFFFE000F8FFFFFFB
:102AF000FFF80007FFF1FEC018FE0003FEFFFFFF16
:102B0000FFFFFFF007878FFFFFFFF8000FFFF1FEC9
:102B1000C0E0F8000FFEFFFFFFFFFFFFE01FC78FC1
:102B2000FFFFFFF8000FFFF1FEC700E0001FFEFFF0
:102B3000FFFFFF9FFFE0FFC78FFE0001FF1EFFFFAB
:102B4000F1FEDC00C0003FFEFFFFF83F1FFFE3FF88
:102B5000C78FFE0001FF1FFFFFF1FEE0000000FF36
:102B6000FEFFFFF00F1FFFFFFFC78FFE0001FFFFFB
:102B7000FFFFF1FEC0000003FFFEFFFFE0031FFFA9
:102B8000FFFFFF8FFE03FFF87FFFFFF1FEE0000075
:102B900007FFFEFFFFE3C19FFFFFFFFF8FFFC07F27
:102BA000F81FFFFFF1FEE000001FFFFEFFFFE7E060
:102BB0009FFFF800FF8FFFF81FF807FFFFF1FEF0FF
:102BC0000000FFFFFEFFFFE7F81FFFF000FF8FFF91
:102BD000FE03F801FFFFF1FEF80003FFFFFEFFFF19
:102BE000E7FC1FFFE000FF8FFFFF83F8C07FFFF1CE
:102BF000FEFC003FFFFFFEFFFFE3FE1FFFE000FFC4
:102C00008FFFFC07F8F01FFFF1FEFFB7FFFFFFFE8D
:102C1000FFFFF1FF1FFFE331FF8FFFE03FF8FC07ED
:102C2000FFF1FEFFFFFFFFFFFEFFFFF3FF9FFFE34C
:102C300038FF8FFF00FFF8FF03FFF1FEFFFFFFFFEC
:102C4000FFFEFFFFFFFFFFFFE338FF8FFE07FFF8E8
:102C5000FFC3FFF1FEFFFFFFFFFFFEFFFFFFFFFFD0
:102C6000FFE318FF8FFE0001F8FFF3FFF1FEFFFF07
:102C7000FFFFFFFEFFFFFFDFFFFFE300FF8FFE0010
:102C800001F8FFFFFFF1FEFFFFFFFFFFFEFFFFFF69
:102C90008FFFFFE380FF8FFE0001F8FFFFFFF1FED3
:102CA000FFFFFFFFFFFEFFFFFF87FFFFF181FF8FA9
:102CB000FFFFFFFFFFFFFFF1FEFFFFFFFFFFFEFF34
:102CC000FFFFC3FFFFFFC3FF8FFFFFFFFFFFFFFFFC
:102CD000F1FEFFFFFFFFFFFEFFFFFFE3FFFFFFFF30
:102CE000FF8FFFFFFFFFFFFFFFF1FE7FFFFFFFFFF3
:102CF000FCFFFFFFF3FFFFFFFFFF8FFFFFFFFFFF63
:102D0000FFFFF1FF000000000001FFFFFFE3FFFCF9
:102D10000000FF8FFFFFFFFFFFFFFFF1FFFFFFFF3F
:102D2000FFFFFFFFFFFFE3FFFC0000FF8FFFFFFF40
:102D3000FFFFFFFFF1FFFFFFFFFFFFFFFFFFFFC3ED
:102D4000FFFC0000FF8FFFFFFFFFFFFFFFF1FFFF12
:102D5000FFFFFFFFFFFFFFFF87FFFC0000FF8FFF6C
:102D6000FFFFFFFFFFFFF1FFFFFFFFFFFFFFFFFF81
:102D7000FF8FFFFFE3F1FF8FFFFFFFFFFFFFFFF17B
:102D8000FFFFFFFFFFFFFFFFFFFF1FFFFFE3F9FF55
:102D90008FFFFFFFFFFFFFFFF1FFFFFFFFFFFFFFC1
:102DA000FFFFFF1FFFFFE3F8FF8FFFFFFFFFFFFFA6
:102DB000FFF1FFFFFFFFFFFFFFFFFFFF3FFFFFE30D
:102DC000F8FF800000000000000001FFFFFFFFFF90
:102DD000FFFFFFFFFE3FFFFFE1F0FF80000000006C
:102DE00000000001FFFFFFFFFFFFFFFFFFFF1FFFCE
:102DF000FFF000FF8FFFFFFFFFFFFFFFF1FFFFFF6F
:102E0000FFFFFFFFFFFFFF1FFFFFF001FF8FFFFF2F
:102E1000FFFFFFFFFFF1FFFFFFFFFFFFFFFFFFFFD0
:102E20000FFFFFF801FF8FFFFFFFFFFFFFFFF1FF25
:102E3000FFFFFFFFFFFFFFFFFF87FFFFFE07FF8F83
:102E4000FFFFFFFFFFFFFFF1FFFFFFFFFFFFFFFFA0
:102E5000FFFFCFFFFFFFFFFF8FFFFFFFFFFFFFFF22
:102E6000F1FFFFFFFFFFFFFFFFFFFFFFFFFFFFFF80
:102E7000FF8FFFFFFFFFFFFFFFF1FFFFFFFFFFFFE0
:102E8000FFFFFFFFFFFFFFF800FF8FFFFFFFFFFFC8
:102E9000FFFFF1FFFFFFFFFFFFFFFFFFFFF8FFFF57
:102EA000F000FF8FFFFFFFFFFFFFFFF1FFFFFFFFBE
:102EB000FFFFFFFFFFF8703FFFE000FF8FFFFFFF06
:102EC000FFFFFFFFF1FFFFFFFFFAFFFFFFFFF02013
:102ED0001FFFE000FF8FFFFFFFFFFFFFFFF1FFFF7E
:102EE000FFFFC01FFFFFFFE0021FFFE3FFFF8FFF99
:102EF000FFFFFF0FFFFFF1FFFFFFFF000FFFFFFFCF
:102F0000E3871FFFE3FFFF8FFFFFFFFF0FFFFFF1CF
:102F1000FFFFFFFE0007FFFFFFE78F8FFFE3FFFFCD
:102F20008FFFFFFFFF0FFFFFF1FFFFFFFE00027F9C
:102F3000FFFFE7CF8FFFF0FFFF8FFFFFFFFF0FFFC8
:102F4000FFF1FFFFFFFC00007FFFFFE7CF9FFFE0E7
:102F500000FF8FFFFE0000003FFFF1FFFFFFF800C2
:102F600000FFFFFFE3FF1FFFE000FF8FFFFE0000F9
:102F7000003FFFF1FFFFFFF83000FFFFFFF3FE1FF0
:102F8000FFE000FF8FFFFE0000003FFFF1FFFFFFAB
:102F9000F83000FFFFFFF7FF3FFFE000FF8FFFFE6D
:102FA0000000003FFFF1FFFFFFF00000FFFFFFFF09
:102FB000FFFFFFFFFFFF8FFFFE0000003FFFF1FF5D
:102FC000FFFFF00000FFFFFFFFFFFFFFFFFFFF8F8E
:102FD000FFFF01FF0FFFFFF1FFFFFF900000FFFF6A
:102FE000FFFFFF1FFFFFFFFF8FFFFFC07F0FFFFFF0
:102FF000F1FFFFFF100000FFFFFFF81F1FFFE000C1
:10300000FF8FFFFFE03F0FFFFFF1FFFFFC1000000D
:10301000FFFFFFF00F1FFFE000FF8FFFFFF81F0F04
:10302000FFFFF1FFFFF8183000FFFFFFE0031FFF75
:10303000E000FF8FFFFFFC070FFFFFF1FFFFF80825
:103040003800FFFFFFE3C19FFFE000FF8FFFFFFF9E
:10305000030FFFFFF1FFFFF0083001FFFFFFE7F074
:103060009FFFFFE1FF8FFFFFFF810FFFFFF1FFFFDA
:10307000E0080001FFFFFFE7F81FFFFFF9FF8FFFE8
:10308000FFFFE00FFFFFF1FFFFE0E40001FFFFFFA4
:10309000E7FC1FFFFFF8FF8FFFFFFFF00FFFFFF1BF
:1030A000FFFFE0E20003FFFFFFE3FE1FFFFFF8FF6B
:1030B0008FFFFFFFF80FFFFFF1FFFFC0E20007FFE8
:1030C000FFFFF1FF1FFFE000FF8FFFFFFFFC0FFF7F
:1030D000FFF1FFFFC041000FFFFFFFF3FF9FFFE085
:1030E00000FF8FFFFFFFFE0FFFFFF1FFFFC000C0DB
:1030F0001FFFFFFFFFFFFFFFE001FF8FFFFFFFFF4D
:10310000FFFFFFF1FFFFC00030FFFFFFFFFFFFFFEA
:10311000FFE003FF8FFFFFFFFFFFFFFFF1FFFFC097
:1031200000077FFFFFFFFFFFFFFFFFFFFF8FFFFF96
:10313000FFFFFFFFFFF1FFFFC000003FFFFFFFFFAA
:10314000FFFFFFFFFFFF8FFFFFFFFF07FFFFF1FF05
:10315000FFC000007FFFFFFFFFFFFFFFFFFFFF8FAC
:10316000FFFFE0FC01FFFFF1FFFFC040007FFFFF1A
:10317000FFFFBFFFFFFFFFFF8FFFFFC07800FFFFD4
:10318000F1FFFFC0E0007FFFFFFFFF3FFFFFFF8772
:10319000FF8FFFFF803800FFFFF1FFFFE0E0007FBF
:1031A000FFFFFFFF3FFFFF1E03FF8FFFFF00100029
:1031B0007FFFF1FFFFE0E0007FFFFFFEFFBFCFFEDC
:1031C0003E01FF8FFFFF0010007FFFF1FFFFE000D7
:1031D000003FFFFFFE3FFF8FFE3C01FF8FFFFE0021
:1031E00000F07FFFF1FFFFF000003FFFFFFF3C0F0B
:1031F0009FFE3C30FF8FFFFE0F01F83FFFF1FFFF06
:10320000F800011FFFFFFFF003FFFE3C78FF8FFF78
:10321000FE0F81FC3FFFF1FFFFF80003FFFFFFFF00
:10322000E000FFFE3878FF8FFFFE1FC3FC3FFFF179
:10323000FFFFFC0007FFFFFFFFC000FFFE1878FF45
:103240008FFFFE1FC3FC3FFFF1FFFFFF000FFFFFDB
:10325000FFFFC0007FFE00F8FF8FFFFE1FC3FC3F93
:10326000FFF1FFFFFF803FFFFFFFFF80003FFF00F8
:10327000F8FF8FFFFE1FC3FC3FFFF1FFFFFFFFFFC3
:10328000FFFFFFFF80003FFF01F0FF8FFFFE1FC326
:10329000FC3FFFF1FFFFFFFFFFFFFFFFFF80003F4D
:1032A000FFC3F1FF8FFFFF0FC3FC3FFFF1FFFFFFE5
:1032B000FFFFFFFFFFF1000031FFFFFFFF8FFFFF68
:1032C0000FFFF83FFFF1FFFFFFFFFFFFFFFFF100E0
:1032D0000031FFFFFFFF8FFFFF07FFF87FFFF1FFC8
:1032E000FFFFFFFFFFFFFFFF80003FFFFFFFFF8F9C
:1032F000FFFFFFFFF07FFFF1FFFFFFFFFFFFFFFF7B
:10330000FF80003FFFFFFFFF8FFFFFFFFFFFFFFF7B
:10331000F1FFFFFFFFFFFFFFFFFF80007FFFFFFFC9
:10332000FF8FFFFFFFFFFFFFFFF1FFFFFFFFFFFF2B
:10333000FFFFFFC0007FFFFFFFFF8FFFFFFFFFFFCB
:10334000FFFFF1FFFFFFFFFFFFFFFFFFE000FFFFB9
:10335000FFFFFF8FFFFFFFFFFFFFFFF1FFFFFFFFFB
:10336000FFFFFFFFFFF001FFFFFFFFFF8FFFFFFFEA
:10337000FFFFFFFFF1FFFFFFFFFFFFFFFFFF7803EE
:10338000DFFFFFFFFF8FFFFFFFFFFFFFFFF1FFFFEB
:10339000FFFFFFFFFFFFFE3F1F8FFFFFFFFF8FFFBE
:1033A000FFFFFFFFFFFFF1FFFFFFFFFFFFFFFFFE3C
:1033B0007FFFCFFFFFFFFF8FFFFFFFFFFFFFFFF14B
:1033C000FFFFFFFFFFFFFFFFFEFF3FFFFFFFFFFFCE
:1033D0008FFFFFFFFFFFFFFFF1FFFFFFFFFFFFFF7B
:1033E000FFFFFF3FFFFFFFFFFF8FFFFFFFFFFFFF1D
:1033F000FFF1FFFFFFFFFFFFFFFFFFFF3FFFFFFFAB
:10340000FFFF8FFFFFFFFFFFFFFFF1FFFFFFFFFF4A
:10341000FFFFFFFFFFFFFFFFFFFFFF8FFFFFFFFF2C
:10342000FFFFFFF1FFFF000000017FFF0000000031
:10343000000000000FFFFFFFFFFFFFFFF1FFFD8017
:103440000000031FFF00000000000000000FFFFF4E
:10345000FF0FF87FFFF1FFF8800000020FFFFFFF72
:10346000FFFFFFFFFFFF8FFFFFFE07F83FFFF1FFAA
:10347000F0400000040FFFFFFFFFFFFFFFFFFF8F83
:10348000FFFFFE07F03FFFF1FFF06000000C07FFB9
:10349000FFFFFFFFFFFFFFFF8FFFFFFE07F03FFF74
:1034A000F1FFF02000000807FFFFFFFFFFFFFFFF15
:1034B000FF8FFFFFFE07F03FFFF1FFF0300000102D
:1034C00007FFFFFFFFFFFFFFFFFF8FFFFFFF07F873
:1034D0007FFFF1FFF01000003007FFFFFFFFFFFF4D
:1034E000FFFFFF8FFFFFFF0FF87FFFF1FFF01800D6
:1034F000002007FFFFFFFFFFFFFFFFFF8FFFFFFF22
:10350000FFFFFFFFF1FFF00800006007FFFFFFFF74
:10351000FFFFFFFFFF8FFFFFFFFFFFFFFFF1FFF048
:103520000400004007FFFFFFFFFFFFFFFFFF8FFFCB
:10353000FFFFFFFFFFFFF1FFF00600008007FFFF26
:10354000FFFFFFFFFFFFFF8FFFFFFFFFFFFFFFF109
:10355000FFF00200018007FFFFFFFFFFFFFFFFFFFB
:103560008FFFFFFFFFFFFFFFF1FFF00300010007E8
:10357000FFFFFFFFE0000000FF8FFFFFFFFFFFFFE7
:10358000FFF1FFF00100020007FFFFFFFF00000056
:1035900000FF8FFFFFFFFFFFFFFFF1FFF00180063D
:1035A0000007FFFFFFFC00000000FF8FFFFFFFFF91
:1035B000FFFFFFF1FFF00080040007FFFFFFF000B6
:1035C000380000FF8FFFFFFFFFFFFFFFF1FFF0005C
:1035D00040080007FFFFFFE000FE0000FF8FFFFF35
:1035E000FFFFFFFFFFF1FFF00040080007FFFFFFB4
:1035F000C003FF8000FF8FFFFFFFFFFFFFFFF1FF12
:10360000F00020100007FFFFFF800FFFF800FF8F82
:10361000FFFFFFFFFFFFFFF1FFF00030300007FF6B
:10362000FFFF003FFFFC00FF8FFFFFFFFFFFFFFFDB
:10363000F1FFF00010200007FFFFFE00FFE7FE0093
:10364000FF8FFFFFFFFFFFFFFFF1FFF000184000BB
:1036500007FFFFFC01FF81FF00FF8FFFFFF03FFC32
:103660003FFFF1FFF00008C00007FFFFFC01FF0073
:103670007F00FF8FFFFFC00FFC3FFFF1FFF0000452
:10368000800007FFFFF801FFC07F80FF8FFFFF80F2
:1036900007FC3FFFF1FFF00005000007FFFFF80007
:1036A000FFF80000FF8FFFFF0003FC3FFFF1FFF07A
:1036B0000003000007FFFFF0001FFE0000FF8FFF68
:1036C000FF0001FC3FFFF1FFF00003000007FFFFD8
:1036D000F00007FF8000FF8FFFFE0000FC3FFFF1BE
:1036E000FFF00001000007FFFFF1FF81FF8000FFF6
:1036F0008FFFFE0780FC3FFFF1FFF0000180000715
:10370000FFFFE0FF007F8000FF8FFFFE0FE07C3FA8
:10371000FFF1FFF04780800007FFFFE07FC13F809F
:1037200000FF8FFFFE1FF03C3FFFF1FFF04FC04056
:103730000007FFFFE03FF94F0000FF8FFFFE1FF87B
:103740001C3FFFF1FFF04C40400007FFFFE01FFE71
:10375000780000FF8FFFFE1FF80C3FFFF1FFF064C1
:10376000C0400007FFFFE00FFF800000FF8FFFFE5B
:103770001FFC043FFFF1FFF07FC0400007FFFFE0A8
:1037800005FFF00000FF8FFFFE1FFE003FFFF1FF6F
:10379000F01F00C00007FFFFE0003FFC0000FF8FAC
:1037A000FFFF0FFF003FFFF1FFF00000800007FF69
:1037B000FFE0000FFF0000FF8FFFFF0FFF003FFF44
:1037C000F1FFF00001000007FFFFE00003FF8000B1
:1037D000FF8FFFFF07FFC03FFFF1FFF00001000078
:1037E00007FFFFE00007FF8001FF8FFFFF87FFE07B
:1037F0003FFFF1FFF00002000007FFFFE0003FFF86
:103800000001FF8FFFFFFFFFF83FFFF1FFF0000611
:10381000000007FFFFE000FFFC0001FF8FFFFFFF3C
:10382000FFFFFFFFF1FFF00005000007FFFFE001D1
:10383000FFE00001FF8FFFFFFFFFFFFFFFF1FFF041
:10384000000D800007FFFFE001FF000003FF8FFF76
:10385000FFFFFFFFFFFFF1FFF00008800007FFFF01
:10386000E001FF800003FF8FFFFFFFFFFFFFFFF17D
:10387000FFF00010400007FFFFE000FFF00003FF33
:103880008FFFFFFFFFFFFFFFF1FFF0001040000779
:10389000FFFFE0001FFE0007FF8FFFFFFFFFFFFF9E
:1038A000FFF1FFF00020200007FFFFE00003FF8092
:1038B00007FF8FFFFFFFFFFFFFFFF1FFF00060300A
:1038C0000007FFFFE00007FF800FFF8FFFFFFFFFF4
:1038D000FFFFFFF1FFF00040100007FFFFE0003F97
:1038E000FF801FFF8FFFFFFFFFFFFFFFF1FFF000D3
:1038F000C0080007FFFFE001FFFF001FFF8FFFFE72
:103900000000003FFFF1FFF000800C0007FFFFE028
:1039100001FFF8003FFF8FFFFE0000003FFFF1FFB7
:10392000F00180040007FFFFE001FFE0007FFF8F50
:10393000FFFE0000003FFFF1FFF00100020007FF63
:10394000FFE001FE0000FFFF8FFFFE0000003FFFD1
:10395000F1FFF00200030007FFFFE001F00003FFAA
:10396000FF8FFFFE0000003FFFF1FFF006000100A7
:1039700007FFFFE001800007FFFF8FFFFF0000004F
:103980003FFFF1FFF00400018007FFFFE0000000AF
:103990001FFFFF8FFFFF83FFFFFFFFF1FFF00C0012
:1039A000008007FFFFE0000000FFFFFF8FFFFF81A7
:1039B000FFFFFFFFF1FFF00800004007FFFFE000FE
:1039C000000FFFFFFF8FFFFFC1FFFFFFFFF1FFF0C1
:1039D0001800006007FFFFFFFFFFFFFFFFFF8FFFE3
:1039E000FFC1FFFFFFFFF1FFF01000002007FFFF06
:1039F000FFFFFFFFFFFFFF8FFFFFE0FFFFFFFFF174
:103A0000FFF02000001007FFFFFFFFFFFFFFFFFF99
:103A10008FFFFFE0FFFFFFFFF1FFF06000001807DE
:103A2000FFFFFFFFFFFFFFFFFF8FFFFFFFFFFFFF16
:103A3000FFF1FFF04000000807FFFFFFFFFFFFFF5F
:103A4000FFFF8FFFFFFFFFFFFFFFF1FFF8C0000048
:103A5000040FFFFFFFFFFFFFFFFFFF8FFFFFFFFFD1
:103A6000FFFFFFF1FFF8800000041FFFFFFFFFFFD3
:103A7000FFFFFFFF8FFFFFFFFFFFFFFFF1FFFF00D3
:103A80000000023FFFFFFFFFFFFFFFFFFF8FFFFF71
:103A9000FFFFFFFFFFF1FFFFFFFFFFFFFFFFFFFF44
:103AA000FFFFFFFFFFFF8FFFFFFFFFFFFFFFF1FFA4
:103AB000FFFFFFFFFFFFFFFFFFFFFFFFFFFFFF8F86
:103AC000FFFFFFFFFFFFFFF1FFFFFFFFFFFFFFFF14
:103AD000C4E300000000000000001DC01D803BFF8B
:103AE0003B073F777E76F870FBFEFBFE3F773F7724
:103AF0003E73387038703BE00000000000000000AA
:103B000000000000000000000000000000000000B5
:103B100000000000000000000000000000000000A5
:103B20000000000000000000000000000000000095
:103B30000000000000000000000000000000000085
:103B40000000000000000000000000000000000075
:103B50000000000000000000000000000000000065
:103B60000000000000000000000000000000000055
:103B7000000000000000BAC30000000000000000C8
:103B8000300073FF700FFE1E7E3C6E38EE30EFFF8C
:103B9000FC307C3038303E307E30E030C1F0000008
:103BA0000000000000000000000000000000000015
:103BB0000000000000000000000000000000000005
:103BC00000000000000000000000000000000000F5
:103BD00000000000000000000000000000000000E5
:103BE00000000000000000000000000000000000D5
:103BF00000000000000000000000000000000000C5
:103C000000000000000000000000000000000000B4
:103C1000000000000000000000000000CAF70000E3
:103C2000000000000000300E300E3FEE30EEFCFFD2
:103C300076CE77FE7BFEFFFEF3DEF3CE37EE3E6EF2
:103C40003C0E303E000000000000000000000000BC
:103C50000000000000000000000000000000000064
:103C60000000000000000000000000000000000054
:103C70000000000000000000000000000000000044
:103C80000000000000000000000000000000000034
:103C90000000000000000000000000000000000024
:103CA0000000000000000000000000000000000014
:103CB0000000000000000000000000000000000004
:103CC0000000DDAE00000000000000000670FFFFF5
:103CD0003E7038007FFFE000FFFC3B8C39CCFFFFDB
:103CE000739C71DC7FFF001C01F8000000000000E5
:103CF00000000000000000000000000000000000C4
:103D000000000000000000000000000000000000B3
:103D100000000000000000000000000000000000A3
:103D20000000000000000000000000000000000093
:103D30000000000000000000000000000000000083
:103D40000000000000000000000000000000000073
:103D50000000000000000000000000000000000063
:103D60000000000000000000C5C9000000000000C5
:103D70000000E01FFFF03E000E1FCFFBFFF83FFFEB
:103D80000FFF7FD87FDC6FCEEDFFFDF7F9C000009D
:103D90000000000000000000000000000000000023
:103DA0000000000000000000000000000000000013
:103DB0000000000000000000000000000000000003
:103DC00000000000000000000000000000000000F3
:103DD00000000000000000000000000000000000E3
:103DE00000000000000000000000000000000000D3
:103DF00000000000000000000000000000000000C3
:103E00000000000000000000000000000000610051
:103E100000000000000000000000000000000000A2
:103E20003E00670007800F807F80E380E780E780A7
:103E30007F80000000000000000000000000000083
:103E40000000000000000000000000000000000072
:103E50000000000000000000000000000000000062
:103E60000000000000000000000000000000000052
:103E70000000000000000000000000000000000042
:103E80000000000000000000000000000000000032
:103E90000000000000000000000000000000000022
:103EA0000000000000000000000000000000000012
:103EB0000000000062000000000000000000700030
:103EC0007000700070007F007B8071C071C071C095
:103ED00071C071C07B807F00000000000000000006
:103EE00000000000000000000000000000000000D2
:103EF00000000000000000000000000000000000C2
:103F000000000000000000000000000000000000B1
:103F100000000000000000000000000000000000A1
:103F20000000000000000000000000000000000091
:103F30000000000000000000000000000000000081
:103F40000000000000000000000000000000000071
:103F500000000000000000000000630000000000FE
:103F60000000000000000000000000003F0073009F
:103F7000F000E000E000E000F00073003F0000000F
:103F80000000000000000000000000000000000031
:103F90000000000000000000000000000000000021
:103FA0000000000000000000000000000000000011
:103FB0000000000000000000000000000000000001
:103FC00000000000000000000000000000000000F1
:103FD00000000000000000000000000000000000E1
:103FE00000000000000000000000000000000000D1
:103FF00000000000000000000000000000000000C1
:104000004100000000000000000000000E001F0042
:104010001F001F003B803B8071807FC071C0E0E0CB
:10402000E0E0E0E000000000000000000000000010
:104030000000000000000000000000000000000080
:104040000000000000000000000000000000000070
:104050000000000000000000000000000000000060
:104060000000000000000000000000000000000050
:104070000000000000000000000000000000000040
:104080000000000000000000000000000000000030
:104090000000000000000000000000000000000020
:1040A0000000000000000000000000000000000010
:1040B0000000000000000000000000000000000000
:1040C00000000000000000000000000000000000F0
:1040D00007000700070007000700070007000200AD
:1040E00002000000000007000700000000000000C0
:1040F000000000000000000000001CE01CE01CE0CC
:1041000008400840084000000000000000000000D7
:1041100000000000000000000000000000000CC0D3
:104120000CC00CC00CC00CC03FF03FF00CC00CC069
:104130003FF03FF00CC00CC00CC00CC00CC0000025
:104140000000000000000300030007E00FE018601B
:1041500018001F000FC000E0186018601FC01F800B
:104160000300030003000000000000000000000046
:104170001C002200220022001C6001E00F803C0095
:1041800031C002200220022001C000000000000017
:1041900000000000000000000000000003E00FE04D
:1041A0000C000C0006000F301FF019E018C01FF0C3
:1041B00007B0000000000000000000000000000048
:1041C0000000038003800380010001000100000063
:1041D00000000000000000000000000000000000DF
:1041E000000000000000000000C000C0018001804D
:1041F00001800300030003000300030003000180AB
:104200000180018000C000C000000000000000002C
:104210000C000C000600060006000300030003006B
:104220000300030003000600060006000C000C005B
:1042300000000000000000000300030003001B60FA
:104240001FE0078007800FC00CC0000000000000C6
:10425000000000000000000000000000000000005E
:104260000000000003000300030003003FF03FF0E4
:104270000300030003000300000000000000000032
:10428000000000000000000000000000000000002E
:104290000000000000000000000000000380030098
:1042A00003000600060004000000000000000000FB
:1042B0000000000000000000000000003FE03FE0C0
:1042C00000000000000000000000000000000000EE
:1042D00000000000000000000000000000000000DE
:1042E00000000000000000000000000003800380C8
:1042F00003800000000000000000000000000060DB
:10430000006000C000C000C0018001800300030005
:10431000060006000C000C000C001800180000003D
:1043200000000000000000000F801FC018C03060B7
:1043300030603060306030603060306018C01FC066
:104340000F800000000000000000000000000000DE
:1043500003001F001F00030003000300030003000D
:104360000300030003001FE01FE000000000000046
:1043700000000000000000000F801FC038E0306027
:10438000006000C00180030006000C0018003FE040
:104390003FE00000000000000000000000000000FE
:1043A0000F803FC030E0006000E007C007C000E0C1
:1043B0000060006060E07FC03F80000000000000FF
:1043C000000000000000000001C003C003C006C0E0
:1043D0000CC00CC018C030C03FE03FE000C003E09C
:1043E00003E00000000000000000000000000000EA
:1043F0001FC01FC0180018001F801FC018E00060F9
:104400000060006030E03FC01F800000000000003E
:10441000000000000000000003E00FE01E00180094
:10442000380037803FC038E03060306018E01FC08F
:1044300007800000000000000000000000000000F5
:104440003FE03FE03060006000C000C000C001807D
:104450000180018003000300030000000000000051
:1044600000000000000000000F801FC038E0306036
:1044700038E01FC01FC038E03060306038E01FC037
:104480000F8000000000000000000000000000009D
:104490000F001FC038C03060306038E01FE00F6090
:1044A00000E000C003C03F803E00000000000000AC
:1044B00000000000000000000000000000000000FC
:1044C000038003800380000000000000038003805D
:1044D0000380000000000000000000000000000059
:1044E000000000000000000001C001C001C0000089
:1044F0000000000003800300060006000400000026
:10450000000000000000000000000000003000F08B
:1045100003C007001C0078001C00070003C000F067
:10452000003000000000000000000000000000005B
:1045300000000000000000007FF07FF0000000009D
:104540007FF07FF00000000000000000000000008D
:1045500000000000000000000000000030003C00EF
:104560000F00038000E0007800E003800F003C00B3
:10457000300000000000000000000000000000000B
:1045800000000F801FC018601860006001C0038029
:10459000030000000000070007000000000000000A
:1045A000000000000000000003800C800840104064
:1045B000104011C012401240124011C010000800FB
:1045C000084007800000000000000000000000001C
:1045D00000001F801F80038006C006C00CC00C6056
:1045E0001FE01FE03030787878780000000000008D
:1045F000000000000000000000003F803FC0186085
:10460000186018E01FC01FE01870183018303FF015
:104610003FE000000000000000000000000000007B
:10462000000007B00FF01C70383030003000300050
:10463000300038301C700FE007C0000000000000A0
:10464000000000000000000000007F807FC030E01C
:1046500030703030303030303030307030E07FC04B
:104660007F8000000000000000000000000000004B
:1046700000003FF03FF01830183019801F801F8075
:104680001980183018303FF03FF0000000000000A3
:10469000000000000000000000003FF03FF0183074
:1046A000183019801F801F801980180018003F00E3
:1046B0003F000000000000000000000000000000BB
:1046C000000007B01FF0187030303000300031F8B3
:1046D00031F8303018301FF007C000000000000033
:1046E000000000000000000000003CF03CF01860FA
:1046F000186018601FE01FE01860186018603CF038
:104700003CF000000000000000000000000000007D
:1047100000001FE01FE0030003000300030003008C
:104720000300030003001FE01FE000000000000082
:104730000000000000000000000003F803F8006023
:1047400000600060006030603060306030E03FC08A
:104750000F800000000000000000000000000000CA
:1047600000003EF83EF818E019801B001F001D8075
:1047700018C018C018603E783E38000000000000E5
:10478000000000000000000000003F003F000C009F
:104790000C000C000C000C000C300C300C303FF006
:1047A0003FF00000000000000000000000000000DA
:1047B00000007878787838703CF034B037B037B093
:1047C0003330333030307CF87CF8000000000000DB
:1047D0000000000000000000000039F03DF01C6007
:1047E0001E601E601B601B6019E019E018E03EE0CF
:1047F0003E6000000000000000000000000000001B
:10480000000007800FC01CE038703030303030308E
:10481000303038701CE00FC007800000000000003E
:10482000000000000000000000003FC03FE01870E2
:104830001830183018701FE01FC0180018003F0013
:104840003F00000000000000000000000000000029
:10485000000007800FC01CE038703030303030303E
:10486000303038701CE00FC0078007B00FF00CE04C
:10487000000000000000000000003FC03FE0187092
:10488000183018701FE01FC018E0186018703E380C
:104890003E180000000000000000000000000000C2
:1048A00000000FB01FF03870303038001F8007E074
:1048B0000070303038703FE037C00000000000006A
:1048C000000000000000000000003FF03FF0333027
:1048D00033303330030003000300030003000FC034
:1048E0000FC00000000000000000000000000000F9
:1048F00000003CF03CF01860186018601860186008
:10490000186018601CE00FC0078000000000000065
:104910000000000000000000000078F078F0306037
:10492000306018C018C00D800D800D800700070092
:104930000700000000000000000000000000000070
:1049400000007C7C7C7C301833983398339836D8C0
:1049500016D01C701C701C70183000000000000085
:104960000000000000000000000078F078F03060E7
:1049700018C00D80070007000D8018C0306078F067
:1049800078F00000000000000000000000000000BF
:1049900000003CF03CF018600CC00780078003006A
:1049A0000300030003000FC00FC000000000000060
:1049B000000000000000000000001FE01FE0186081
:1049C00018C001800300030006000C6018601FE09F
:1049D0001FE00000000000000000000000000000D8
:1049E00003C003C00300030003000300030003002F
:1049F00003000300030003000300030003C003C01F
:104A0000000000000000180018000C000C000C0052
:104A100006000600030003000180018000C000C002
:104A200000C0006000600000000000000000000006
:104A30000F000F0003000300030003000300030046
:104A40000300030003000300030003000F000F0036
:104A50000000000000000000020007000D8018C0E8
:104A60003060202000000000000000000000000076
:104A70000000000000000000000000000000000036
:104A80000000000000000000000000000000000026
:104A90000000000000000000000000000000000016
:104AA0000000FFFCFFFC0000040003000080000089
:104AB00000000000000000000000000000000000F6
:104AC00000000000000000000000000000000000E6
:104AD00000000000000000000FC01FE000600FE0B9
:104AE0001FE0386030E03FF01F7000000000000061
:104AF0000000000000000000700070003000300076
:104B000037803FE0386030303030303038607FE020
:104B1000778000000000000000000000000000009E
:104B2000000000000000000007B01FF01830303017
:104B30003000300038301FF00FC0000000000000CF
:104B40000000000000000000007000700030003025
:104B500007B01FF0187030303030303038701FF828
:104B600007B8000000000000000000000000000086
:104B7000000000000000000007801FE018603FF008
:104B80003FF0300018301FF007C0000000000000A8
:104B9000000000000000000003F007F0060006001F
:104BA0001FE01FE0060006000600060006001FE0EA
:104BB0001FE00000000000000000000000000000F6
:104BC000000000000000000007B81FF81870303027
:104BD0003030303018701FF007B0003000700FE038
:104BE0000FC0000000000000380038001800180056
:104BF0001BC01FE01C6018601860186018603CF053
:104C00003CF0000000000000000000000000000078
:104C100003000300000000001F001F00030003004A
:104C20000300030003001FE01FE00000000000007D
:104C3000000000000000000003000300000000006E
:104C40001FC01FC000C000C000C000C000C000C026
:104C500000C000C001C03F803F0000000000000015
:104C600038003800180018001BE01BE01B001E0075
:104C70001E001B00198039F039F000000000000010
:104C800000000000000000001F001F0003000300E0
:104C900003000300030003000300030003001FE000
:104CA0001FE0000000000000000000000000000005
:104CB00000000000000000007EE07FF03330333061
:104CC0003330333033307BB87BB800000000000055
:104CD00000000000000000000000000000000000D4
:104CE0003BC03FE01C6018601860186018603CF022
:104CF0003CF0000000000000000000000000000088
:104D0000000000000000000007801FE01860303045
:104D10003030303018601FE00780000000000000D5
:104D20000000000000000000000000000000000083
:104D300077807FE0386030303030303038603FE0AE
:104D40003780300030007C007C0000000000000054
:104D5000000000000000000007B81FF81870303095
:104D60003030303018701FF007B00030003000F8DD
:104D700000F800000000000000000000000000003B
:104D80003CE03DF00F300E000C000C000C003FC06A
:104D90003FC0000000000000000000000000000014
:104DA000000000000000000007E01FE018601E0087
:104DB0000FC001E018601FE01F800000000000002D
:104DC000000000000000000000000C000C000C00BF
:104DD0003FE03FE00C000C000C000C000C300FF02A
:104DE00007C00000000000000000000000000000FC
:104DF000000000000000000038E038E01860186093
:104E00001860186018E01FF00F700000000000002C
:104E10000000000000000000000000000000000092
:104E200078F078F0306018C018C00D800D80070051
:104E3000070000000000000000000000000000006B
:104E4000000000000000000078F078F0326032606E
:104E500037E01DC01DC018C018C0000000000000D1
:104E60000000000000000000000000000000000042
:104E70003CF03CF00CC00780030007800CC03CF005
:104E80003CF00000000000000000000000000000F6
:104E9000000000000000000078F078F0306018C0DA
:104EA00018C00D800F800700060006000C007F0070
:104EB0007F00000000000000000000000000000073
:104EC0001FE01FE018C00180030006000C601FE017
:104ED0001FE00000000000000000000000000000D3
:104EE00001C003C003000300030003000300070028
:104EF0000E000700030003000300030003C001C00D
:104F00000000000000000000030003000300030095
:104F10000300030003000300030003000300030079
:104F20000300030003000300000000000000000075
:104F30001C001E0006000600060006000600070012
:104F40000380070006000600060006001E001C0085
:104F50000000000000000000000000000000000051
:104F600000000E003F3033F001E0000000000000C0
:104F70000000000000000000000000000000C4E38A
:104F80000000000000000000000000000000000021
:104F900000000000000000000000000001C1C0008F
:104FA00001E3E00003E3C00003C7800003C7FFFF85
:104FB000078FFFFF078F000F0F1E001E0F3C1E1EE6
:104FC0001F3C1E3E1F181E3C3F001E1C7F001E0083
:104FD0007F079E70FF079EF0EF0F9E786F0F1E7881
:104FE0000F0F1E3C0F1E1E3C0F1E1E1E0F3C1E1ED2
:104FF0000F3C1E1F0F7C1E0F0F781E0E0F001E0091
:105000000F001E000F003C000F07FC000F07F80008
:105010000000000000000000000000000000000090
:1050200000000000BAC30000000000000000000003
:1050300000000000000000000000000000000F0061
:1050400000000F0000000F07FFFE0F07FFFE0F001C
:10505000003E1E0000FCFFF801F0FFF803E01E78A0
:1050600007C01E780F803C780F003C780F003C781A
:105070000F003C780F003C7FFFFF78FFFFFF78F0C8
:105080000F0078F00F003DE00F001FE00F000FE071
:105090000F0007C00F0007E00F0007F00F000FF828
:1050A0000F001E7C0F003C380F0078000F00F0034B
:1050B000FF006001FE000000000000000000000092
:1050C00000000000000000000000CEA20000000070
:1050D00000000000000000000000000000000000D0
:1050E00000000000030701E0078701E0070701C097
:1050F0000FF779C01EF77BC01EF77B803CF77BFF64
:1051000078F77BFFF8F77F9EF7FFFF9E67FFFF9E14
:1051100007007F9C0F000F9C1E001F9C1E7FFFBC82
:105120003E7FF3FC3E0003FC7E0001F8FE0001F828
:10513000FE7FE1F8DE7FE1F81E78E0F01E78EEF009
:105140001E78FFF01E78FDF81E79FBFC1EF1F7BCFF
:105150001EF0EF9E1FE00F0F1EC01E0F1E000C075B
:10516000000000000000000000000000000000003F
:10517000C8ED00000000000000000000000000007A
:1051800000000000000003C078000780780007805E
:1051900078000780F0000F00F000FFFFFFFFFFFF27
:1051A000FFFF1E03C01F1E03C01E1FE78F3E3DE70B
:1051B0008F3C3DEF0F7C3DE70F7879E00F0079E001
:1051C0000E007FFE0E007FFE1F0001E01F0001E0C9
:1051D0001F0001E01F8001E01F8001E03F8001FF10
:1051E0003FC00FFF7BC0FFF079E0F9E0F1F001E193
:1051F000F0F001E3E0F801E7C07C01FF803F01FF30
:10520000001F01EC000E0000000000000000000084
:10521000000000000000D1C50000000000000000F8
:10522000000000000000000000000000000000007E
:10523000000077000000FF007FFCF7807FFDE3C0E7
:1052400001C1E3C001C3C1803DC7FFFF39C7FFFFF4
:1052500039CF838079DF838079FF838079DF838012
:1052600071C383807FFFFFFE7FFFFFFE03C3838048
:1052700007C3838007C383800FC383800FC38380EA
:105280001FC3FFFE1DC3FFFE3DC3838079C3838020
:10529000F1C38380F1C3838061C3838001C3FFFFB7
:1052A00003C3FFFF1FC380001F83800000000000B6
:1052B000000000000000000000000000BADA00005A
:1052C00000000000000000000000000000000000DE
:1052D00000000000000000000000000000001FFFB0
:1052E000FFFC1FFFFFFC1E03C03C1EC3C73C1FE3A7
:1052F000C7BC1EF3CF3C1EFBDF3C1E7BDE3C1E33D7
:10530000DC3C1E03C03C1FFFFFFC1FFFFFFC1E0315
:10531000C03C0003C0000003C0003FFFFFFC3FFF94
:10532000FFFC0003C0000003C0000003C000FFFF3B
:10533000FFFFFFFFFFFF000000001C3870703E7889
:10534000F8F83C7C787C7C3C3C3EF83E3C1FF01CF2
:10535000180E000000000000000000000000000027
:105360000000B4CB000000000000000000000000BE
:10537000000000000000000000000000000000002D
:1053800000783C0000783C0000783C0000783C004D
:1053900000783C0000783C0C3C783C1E3C783C3F5C
:1053A0003C783CF83C7FFDF03C7FFFE03C783F8060
:1053B0003C783E003C783C003C783C003C783C002B
:1053C0003C783C003C783C003C783C003C783C0E0F
:1053D0003C783C0F3C783C0F3C79FC0F3C7FFC0F49
:1053E0003FFF3C0F3FF03E1EFF001FFEF0000FFC92
:1053F00000000000000000000000000000000000AD
:105400000000000000000000D7D6000000000000EF
:105410000000000000000000000000000000000389
:105420008000000780000003C0000003E0000001CE
:10543000E0007FFFFFFE7FFFFFFE7800001E780088
:10544000001E7800001E7800001E7BFFFFDE03FFB9
:10545000FFC000000FC000003F0000007E00000100
:10546000F8000001E0000001E000FFFFFFFFFFFF88
:10547000FFFF0001E0000001E0000001E00000018A
:10548000E0000001E0000001E0000003E000000394
:10549000C00000FFC00000FF80000000000000000E
:1054A0000000000000000000000000000000CCE54B
:1054B00000000000000000000000000000000000EC
:1054C00000000000000000000000000003C03C00DD
:1054D00003C03C0003C03C0007803C0007803C0048
:1054E00007803C000FFFFFFF0FFFFFFF1F01FE00C3
:1054F0001F01FF003F01FF003F03FF007F03FF800C
:105500007F07BF80FF07BFC0EF0F3DC0CF0F3DE05B
:105510000F1E3DE00F1E3CF00F3C3C780F7C3C7CA6
:105520000FF83C3E0FF7FFDF0FE7FFCF0FC03C0641
:105530000F003C000F003C000F003C000F003C003F
:105540000F003C0000000000000000000000000010
:1055500000000000CFC200000000000000000000BA
:10556000000000000000000000000000000000003B
:10557000000000000000FFFFFFFFFFFFFFFF000F24
:105580008000000F8000000F8000000F8000000FDF
:105590008000000F8000000FE000000FF800000FF7
:1055A000FC00000FBF00000F9F80000F87E0000F7E
:1055B00083F0000F80F8000F807C000F8038000F10
:1055C0008000000F8000000F8000000F8000000F9F
:1055D0008000000F8000000F8000000F8000000F8F
:1055E0008000000F800000000000000000000000AC
:1055F00000000000000000000000B6D40000000021
:10560000000000000000000000000000000000009A
:10561000000000000000000000000078000000789A
:10562000000000787FFC00787FFC0078003C007868
:10563000003FFFFF303FFFFF783C00783C380078A8
:105640003E7800781E78C0780F79E0780FF0F07817
:1056500007F0F87803F0787801E03C7803F03E78C2
:1056600003F0187807F8007807FC00780F3E007800
:105670001F1E00783E1F00787C0E00F8F80000F036
:10568000F0003FF060003FE000000000000000007C
:10569000000000000000000000000000000000000A
:1056A000D3A6000000000000000000000000000081
:1056B0000000000000000001C0000003E000000145
:1056C000E0000001F0000000F0001FFFFFFF1FFFDF
:1056D000FFFF1E0000001E0000001E01E0781E01FA
:1056E000E0781EE1E0781FF1F0F81EF0F0F01EF017
:1056F000F0F01EF8F0F01E78F1F01E78F9E01E7858
:1057000079E01E7C7BE01E3C7BC01E3C7BC01E3CC7
:105710007BC03C3E07803C1C07803C0007803C006F
:105720000F0078000F007BFFFFFFF3FFFFFFF0008B
:105730000000600000000000000000000000000009
:10574000000000000000B5C40000000000000000E0
:105750000000000000000000000000000000000049
:1057600003803C0007C03E0007803C0007807C00AF
:105770000F0078007FFE7FFE7FFEFFFE781EF01E8A
:10578000781FE01E781FE01E781FC01E781FC01E05
:10579000781FF01E781EF81E781E7C1E7FFE3C1EB1
:1057A0007FFE1E1E781E1F1E781E0F9E781E079EEF
:1057B000781E071E781E001E781E001E781E003EF2
:1057C000781E003C781E003C7FFE003C7FFE007C83
:1057D000781E3FF8781E3FF0000000000000000037
:1057E000000000000000000000000000B5E3000021
:1057F00000000000000000000000000000000000A9
:105800000000000000000003C0000003C00000030F
:10581000C0000003C0000003FFFF0003FFFF000300
:10582000C0000003C0000003C0000003C0000FFF61
:10583000FFF80FFFFFF80F0000780F0000780F004F
:1058400000780F0000780F0000780F0000780FFF3D
:10585000FFF80FFFFFF80F000078000000000C3881
:1058600038301E7C78783E3C78783C3C3C3C7C3E32
:105870003C3EF81E3C1EF01E1E1F701E1C0E00003B
:105880000000000000000000000000000000000018
:105890000000D5F300000000000000000000000040
:1058A00000000000000000000000000000003C00BC
:1058B000000078007FF078007FF0780079FFFFFF2C
:1058C00079FFFFFF79E1E00079E1E0007BC1EF8043
:1058D0007BC3CF807BC3CF807F87CF807F878F8044
:1058E0007F878F807BCF0F807BCFFFFE79EFFFFE1E
:1058F00079E00F8078E00F8078F00F8078F00F80EB
:1059000078F00F8078FFFFFF79FFFFFF7FE00F80C7
:105910007FC00F8078000F8078000F8078000F80A4
:1059200078000F8078000F80000000000000000069
:105930000000000000000000CEAA000000000000EF
:105940000000000000000000000000000000000057
:10595000000000000000000780000E0780001F0705
:1059600080000F87800007C7800001E7800000C724
:105970008000000780007FFFFFFC7FFFFFFC000727
:10598000803C000F803C000F003C000F003C000FEB
:10599000603C001FF03C001E783C003E3C3C003C5C
:1059A0003E3C007C1F3C00780F3C00F8063C01F0B8
:1059B000003C03E0007C07C0007C0F8000781F00E3
:1059C00000F83E00FFF07C00FFE03800000000001F
:1059D0000000000000000000000000000000CAF706
:1059E00000000000000000000000000000000000B7
:1059F0000000000000000000000000000F00003860
:105A00000F0000380F0000380F3FF8380F3FF8380C
:105A10000F007838FFE07FFFFFE07FFF0F00703856
:105A20000F18F0381F3CF0381F1CFE381FDEFE3800
:105A30003FEFEF383FFFEF383FF7E7B87F67C7B872
:105A40007F03C3B8FF07E038EF07E038EF0FF03807
:105A5000CF1FF0380F1E78380F3C7C380F783C3859
:105A60000FF838380F6000780F000FF80F0007F0BC
:105A70000F00000000000000000000000000000017
:105A800000000000DDAE000000000000000000008B
:105A90000000000000000000000000000000003CCA
:105AA0001E00003C1E00003C1E00FFFFFFFFFFFF2A
:105AB000FFFF003C1E0007BC1E00078000000FFF18
:105AC000FFFC0FFFFFFC1E0000003C0000003C003C
:105AD00000007FFFFFF0F7FFFFF0378380F00787BC
